:020000040000FA
:100000000C94EB040C9413050C9413050C94130539
:100010000C9413050C9413050C9413050C94130500
:100020000C9413050C9413050C9413050C941305F0
:100030000C9413050C9413050C9413050C941305E0
:100040000C947A070C9413050C94EA070C94C407DB
:100050000C9413050C9413050C9413050C941305C0
:100060000C9413050C9413055D2420002F002F0021
:10007000406E616E6F20005B00426F6F7420636F93
:100080006D706C65746521002E00496E697469613C
:100090006C697A696E67002020E29494E29480E2B1
:1000A0009480E29480E29480E29480E29480E294EE
:1000B00080E29480E29480E29480E29480E29480F2
:1000C000E29480E29480E29480E29480E29480E280
:1000D0009480E29480E29480E29480E29480E294BE
:1000E00080E29480E29480E29480E29480E29480C2
:1000F000E29480E29480E29480E29480E29480E250
:100100009480E29480E29480E29480E294980020CB
:1001100020E2948220202020204F7074696D697A3B
:10012000656420666F722041726475696E6F205538
:100130006E6F202020202020E29482002020E29474
:1001400082202020202020506F7765726564206215
:1001500079204375706974204B65726E656C202040
:100160002020202020E29482002020E2948220207F
:100170002020202020204E616E6F74726F6E6520EB
:100180004F532076302E3420202020202020202085
:100190002020E29482002020E2948CE29480E29479
:1001A00080E29480E29480E29480E29480E2948001
:1001B000E29480E29480E29480E29480E29480E28F
:1001C0009480E29480E29480E29480E29480E294CD
:1001D00080E29480E29480E29480E29480E29480D1
:1001E000E29480E29480E29480E29480E29480E25F
:1001F0009480E29480E29480E29480E29480E2949D
:1002000080E29480E29480E29480E2949000202046
:100210002020E2959AE29590E2959D2020E2959A21
:10022000E29590E29590E29590E2959DE2959AE2B2
:100230009590E2959D2020E2959AE29590E2959D19
:10024000E2959AE29590E2959D2020E2959AE295BA
:1002500090E29590E29590E2959D20E2959AE29544
:1002600090E29590E29590E29590E29590E2959DCE
:10027000200020202020E29688E29688E2959120B6
:10028000E2959AE29688E29688E29688E29688E27B
:100290009591E29688E29688E295912020E29688F0
:1002A000E29688E29591E29688E29688E29591201E
:1002B000E2959AE29688E29688E29688E29688E24B
:1002C0009591E2959AE29688E29688E29688E2967F
:1002D00088E29688E29688E29594E2959D00202037
:1002E0002020E29688E29688E29591E2959AE2963D
:1002F00088E29688E29597E29688E29688E2959160
:10030000E29688E29688E29594E29590E29590E2F2
:100310009688E29688E29591E29688E29688E29540
:1003200091E2959AE29688E29688E29597E296881D
:10033000E29688E29591E29688E29688E29591208D
:100340002020E29688E29688E295910020202020E5
:10035000E29688E29688E29594E29688E29688E2B0
:10036000959720E29688E29688E29591E29688E257
:100370009688E29688E29688E29688E29688E296E7
:1003800088E29591E29688E29688E29594E29688D2
:10039000E29688E2959720E29688E29688E2959127
:1003A000E29688E29688E29591202020E29688E203
:1003B0009688E295910020202020E29688E2968897
:1003C000E29688E29688E295972020E29688E29667
:1003D00088E29591E29688E29688E29594E295907B
:1003E000E29590E29688E29688E29597E29688E216
:1003F0009688E29688E29688E295972020E2968891
:10040000E29688E29591E29688E29688E29594E2F7
:100410009590E29590E29590E29688E29688E29532
:10042000970020202020E29688E29688E29688E2D3
:100430009597202020E29688E29688E2959720E220
:100440009688E29688E29688E29688E29688E29517
:100450009720E29688E29688E29688E29597202097
:1004600020E29688E29688E2959720E29688E296C6
:1004700088E29688E29688E29688E29688E29597E6
:10048000200053797374656D2072656164792E2044
:1004900054797065202768656C702720666F72201C
:1004A000636F6D6D616E64732E0020206466202082
:1004B00020202020202D204469736B2075736167F4
:1004C000650020206563686F203C743E202D20501D
:1004D00072696E74207465787400202063617420E2
:1004E0003C663E20202D2053686F772066696C653E
:1004F000002020726D203C66696C653E2D204465AD
:100500006C6574652066696C65002020746F756386
:1005100068203C6E3E2D20437265617465206669DB
:100520006C650020206D6B646972203C6E3E2D204E
:1005300043726561746520646972002020636420E1
:100540003C6469723E202D204368616E67652064BB
:1005500069720020207077642020202020202D2028
:1005600043757272656E74206469720020206C732A
:10057000202020202020202D204C697374206669C3
:100580006C65730046696C65733A00202064617481
:100590006520202020202D2053797374656D2074F0
:1005A000696D6500202077686F616D692020202DBE
:1005B0002043757272656E74207573657200202019
:1005C0007265626F6F742020202D205265737461F4
:1005D00072740020206D656D696E666F20202D207D
:1005E0004D656D6F727920696E666F0020207570A1
:1005F00074696D652020202D2053797374656D20FA
:10060000757074696D650020206E656F6665746332
:1006100068202D2053797374656D20696E666F00B4
:100620002020636C656172202020202D20436C65A2
:1006300061722073637265656E00202068656C705E
:1006400020202020202D2053686F7720636F6D6D50
:10065000616E64730053797374656D3A004E616E18
:100660006F74726F6E65204F532076302E342043A6
:100670006F6D6D616E64733A00730020202020203E
:100680002020202020202020202020202055707491
:10069000696D653A20002020202020202020202085
:1006A0002020E29680E29680E29680202020466C10
:1006B0006173683A2033324B420020202020E296BA
:1006C00080E29680E29680E29680E29680E29680D2
:1006D000E296802020E29688E29688E296882020A2
:1006E00052414D3A20324B42205352414D0020207E
:1006F000E29680E29688E29688E29688E29688E220
:100700009688E29688E29688E29688E29688E29653
:1007100080E29688E29688E2968820204350553AF7
:100720002041546D65676133323850002020E296D5
:1007300088E29688E29688E29688E29688E2968831
:10074000E29688E29688E29688E29688E29688E2C7
:100750009688E29688E29688E2968820204B657219
:100760006E656C3A204375706974002020E29688AB
:10077000E29688E29688E29688E29688E29688E297
:100780009688E29688E29688E29688E29688E296D3
:1007900088E29688E29688E2968820204F533A2095
:1007A0004E616E6F74726F6E652076302E3400204D
:1007B00020E29688E29688E29688E29688E2968819
:1007C000E29688E29688E29688E29688E29688E247
:1007D0009688E29688E29688E29688E296880020DB
:1007E0002020E29684E29688E29688E29688E29655
:1007F00088E29688E29688E29688E29688E2968871
:10080000E29684002020202020E29684E29684E272
:100810009684E29684E29684E29684E296840020AE
:10082000627974657300446174613A20002529007F
:100830002028002F00446972733A200025290020E7
:1008400028002F0046696C65733A20004E6F2073B4
:100850007061636520666F722066696C6500466929
:100860006C65206372656174656420616E642077D5
:1008700072697474656E005772697474656E207461
:100880006F2066696C650046696C65206E6F742028
:10089000666F756E640046696C65206E6F742066C5
:1008A0006F756E640044656C657465643A20004E33
:1008B0006F20737061636500437265617465643AAB
:1008C0002000496E76616C69642066696C656E61B2
:1008D0006D65004469726563746F7279206E6F7420
:1008E00020666F756E64004E6F20737061636500E3
:1008F000437265617465643A2000496E76616C6983
:1009000064206E616D65006D6B646972206F6E6C42
:100910007920617420726F6F740028656D7074792E
:1009200029004229002028002F00436F6E74656E55
:1009300074733A002F002F002F00446972733A201D
:10094000002F0046696C65733A2000206279746557
:100950007300467265652052414D3A20004D656D29
:100960006F727920496E666F3A00436F6D6D616EEC
:1009700064206E6F7420666F756E642E20547970DB
:1009800065202768656C70272E00207365632073CF
:10099000696E636520626F6F740053797374656D5F
:1009A0002074696D653A2000207365636F6E64730F
:1009B00000557074696D653A20005265626F6F74FE
:1009C000696E672E2E2E001B5B324A1B5B480008A7
:1009D00020080000B00D11241FBECFEFD8E0DEBF0D
:1009E000CDBF11E0A0E0B1E0ECE9FCE102C0059070
:1009F0000D92A039B107D9F723E0A0E9B1E001C019
:100A00001D92A43FB207E1F714E0CBEED4E004C09E
:100A10002197FE010E94FF0DCA3ED107C9F70E942F
:100A20001C080C944C0E0C9400003FB7F894809175
:100A30004F0390915003A0915103B091520326B5FA
:100A4000A89B05C02F3F19F00196A11DB11D3FBF06
:100A5000BA2FA92F982F8827BC01CD01620F711DD5
:100A6000811D911D42E0660F771F881F991F4A95CF
:100A7000D1F708958F929F92AF92BF92CF92DF925B
:100A8000EF92FF924B015C010E9415056B017C0106
:100A90000E9415056C197D098E099F09683E7340F7
:100AA00081059105A8F321E0821A9108A108B108F7
:100AB00088EEC80E83E0D81EE11CF11C811491045D
:100AC000A104B10429F7FF90EF90DF90CF90BF9081
:100AD000AF909F908F900895AF92BF92CF92DF9288
:100AE000EF92FF920F931F93CF93DF936C017B01E3
:100AF0008B01040F151FEB015E01AE18BF08C01774
:100B0000D10759F06991D601ED91FC910190F081E6
:100B1000E02DC6010995892B79F7C501DF91CF91A9
:100B20001F910F91FF90EF90DF90CF90BF90AF900B
:100B30000895FC01538D448D252F30E0842F90E0E3
:100B4000821B930B541710F0CF96089501970895C8
:100B5000FC01918D828D981761F0A28DAE0FBF2F91
:100B6000B11D5D968C91928D9F5F9F73928F90E0E7
:100B700008958FEF9FEF0895FC01918D828D981756
:100B800031F0828DE80FF11D858D90E008958FEF93
:100B90009FEF0895FC01918D228D892F90E0805C5C
:100BA0009F4F821B91098F739927089583E593E0E6
:100BB0000E94CA0521E0892B09F420E0822F0895C4
:100BC00080E090E0892B29F00E94D60581110C94D9
:100BD00000000895FC01A48DA80FB92FB11DA35AE0
:100BE000BF4F2C91848D90E001968F739927848F4D
:100BF000A689B7892C93A089B1898C918370806470
:100C00008C93938D848D981306C00288F389E02D10
:100C100080818F7D80830895EF92FF920F931F93C1
:100C2000CF93DF93EC0181E0888F9B8D8C8D98139F
:100C30001AC0E889F989808185FF15C09FB7F894AB
:100C4000EE89FF896083E889F989808183708064F7
:100C500080839FBF81E090E0DF91CF911F910F9142
:100C6000FF90EF900895F62E0B8D10E00F5F1F4F51
:100C70000F731127E02E8C8D8E110CC00FB607FC60
:100C8000FACFE889F989808185FFF5CFCE010E94EE
:100C9000EA05F1CFEB8DEC0FFD2FF11DE35AFF4F6D
:100CA000F0829FB7F8940B8FEA89FB89808180627C
:100CB000CFCF0F931F93CF93DF938C01D0E0C0E091
:100CC000F801EC0FFD1F6491662341F083E593E08A
:100CD0000E940C06892B11F02196F2CFCE01DF91F4
:100CE000CF911F910F910895CF93DF93EC01888DE1
:100CF0008823B9F0AA89BB89E889F9898C9185FD97
:100D000003C0808186FD0DC00FB607FCF7CF8C9124
:100D100085FFF2CF808185FFEDCFCE010E94EA05ED
:100D2000E9CFDF91CF910895E0E0F3E090E080E03B
:100D3000208521110196399623E0E432F207C1F7AC
:100D40000895E0E9F1E090E080E025A52111019609
:100D5000BE9623E0E030F207C1F70895FC01019050
:100D60000020E9F73197AF01481B590BBC0183E51F
:100D700093E00C946C058AE191E00C94AE06CF935D
:100D8000DF930E945906EC010E94BB068C0F9D1F49
:100D9000DF91CF9108958F929F92AF92BF920F9360
:100DA0001F93CF93DF93CDB7DEB7A1970FB6F8941B
:100DB000DEBF0FBECDBF19A2423008F44AE08E015B
:100DC0000F5D1F4F842E912CB12CA12CA5019401F5
:100DD0000E94DD0DE62FB901CA01EA30F4F4E05DAE
:100DE000D801EE938D01232B242B252B79F790E04E
:100DF00080E0109719F0CD010E94AE06A1960FB6C3
:100E0000F894DEBF0FBECDBFDF91CF911F910F9140
:100E1000BF90AF909F908F900895E95CE1CF0C94C4
:100E2000AE06CF93DF9387E790E00E94590680E0FB
:100E300091E00E940F0780E790E00E945906C09160
:100E40002403C1110AC08EE690E00E94590688E68C
:100E500090E0DF91CF910C9459068CE690E00E94CF
:100E60005906C150DD0B49E04C9FC0014D9F900DCC
:100E7000112480509D4F0E940F07E9CFCF93DF933D
:100E80000E94AE06EC010E94BB068C0F9D1FDF91F5
:100E9000CF910895CF92DF92EF92FF92CF93DF939D
:100EA0006C01990FEE08FF08F7FE19C06DE283E5AB
:100EB00093E00E940C06EC0166277727CB016C19A2
:100EC0007D098E099F094AE00E94CB068C0F9D1F69
:100ED000DF91CF91FF90EF90DF90CF9008954AE09F
:100EE000C701B601DF91CF91FF90EF90DF90CF90D7
:100EF0000C94CB061F920F920FB60F9211242F93D2
:100F00003F938F939F93AF93BF9380914B039091A7
:100F10004C03A0914D03B0914E0330914A0323E05E
:100F2000230F2D3758F50196A11DB11D20934A03BB
:100F300080934B0390934C03A0934D03B0934E03C7
:100F400080914F0390915003A0915103B0915203AF
:100F50000196A11DB11D80934F0390935003A09360
:100F60005103B0935203BF91AF919F918F913F91E5
:100F70002F910F900FBE0F901F90189526E8230F0A
:100F80000296A11DB11DD2CF1F920F920FB60F92E4
:100F900011242F933F934F935F936F937F938F937E
:100FA0009F93AF93BF93EF93FF9383E593E00E94EA
:100FB000EA05FF91EF91BF91AF919F918F917F9142
:100FC0006F915F914F913F912F910F900FBE0F90B6
:100FD0001F9018951F920F920FB60F9211242F9306
:100FE0008F939F93EF93FF93E0916303F0916403DA
:100FF0008081E0916903F0916A0382FD1BC09081BA
:1010000080916C038F5F8F7320916D03821741F085
:10101000E0916C03F0E0ED5AFC4F958F80936C03E8
:10102000FF91EF919F918F912F910F900FBE0F9095
:101030001F9018958081F4CFCF93DF9300D000D01C
:1010400000D01F92CDB7DEB7789484B5826084BD9E
:1010500084B5816084BD85B5826085BD85B58160BC
:1010600085BD80916E00816080936E00109281003A
:1010700080918100826080938100809181008160F5
:1010800080938100809180008160809380008091B6
:10109000B10084608093B1008091B0008160809342
:1010A000B00080917A00846080937A0080917A0009
:1010B000826080937A0080917A00816080937A00C8
:1010C00080917A00806880937A001092C100E0914C
:1010D0006303F091640382E08083E0915F03F09109
:1010E00060031082E0916103F09162038FEC8083D2
:1010F00010926B03E0916703F091680386E08083B0
:10110000E0916503F0916603808180618083E091C6
:101110006503F0916603808188608083E0916503B8
:10112000F0916603808180688083E0916503F0918F
:10113000660380818F7D80832FB7F89480914B0365
:1011400090914C03A0914D03B0914E032FBF80931B
:10115000250390932603A0932703B09328031092AE
:10116000BD011092EB0110921902109247021092E9
:1011700075021092A3021092D1021092FF021092F7
:1011800008031092110310921A031092230364EFC4
:1011900071E080E090E00E943A050E94BB0682E286
:1011A00094E00E94BF0686EB93E00E94BF068CE4A9
:1011B00093E00E94BF068EED92E00E94BF0682E798
:1011C00092E00E94BF068EE092E00E94BF060E945D
:1011D000BB0686E991E00E94BF0689E691E00E9485
:1011E000BF068CE391E00E94BF068FE091E00E9471
:1011F000BF0687E990E00E94BF060E94BB068AE80E
:1012000090E00E94590608E010E068EC70E080E091
:1012100090E00E943A0588E890E00E94590601504B
:10122000110999F70E94BB0689E790E00E94BF066A
:101230000E94BB066DE171E080E093E00E940E0E1B
:1012400011E01093080361E271E089E093E00E94ED
:101250000E0E1093110382E894E00E94BF060E94D4
:10126000110768EE862E63E0962EA12CB12C9E010C
:101270002F5F3F4F3C832B835EE2D52ECC24C3945B
:1012800083E593E00E94CA05892B09F481C083E5B8
:1012900093E00E94A805E09149038A3019F08D304F
:1012A00009F03EC4AE2FB0E0A75DBC4F1C92EE2308
:1012B00009F46CC065E271E089E293E00E94050EDA
:1012C000892B09F055C08DE596E00E94BF060E946B
:1012D000BB0685E596E00E94BF068AE396E00E9481
:1012E000BF0680E296E00E94BF0687E096E00E947B
:1012F000BF068CEE95E00E94BF0683ED95E00E944C
:10130000BF068EEB95E00E94BF0684EA95E00E943E
:10131000BF068BE895E00E94BF060E94BB0684E8EA
:1013200095E00E94BF068CE695E00E94BF0683E52B
:1013300095E00E94BF068BE395E00E94BF0683E222
:1013400095E00E94BF068AE095E00E94BF0681EF0B
:1013500094E00E94BF068AED94E00E94BF0682ECF2
:1013600094E00E94BF068AEA94E00E94BF060CC087
:101370006AE271E089E293E00E94050E892BA9F4EC
:1013800087EC99E00E945906109249030E941107C8
:1013900080E090E0892B09F473CF0E94D605882362
:1013A00009F46ACF0E94000067CF60E371E089E230
:1013B00093E00E94050E892B09F047C084E098E075
:1013C0000E94BF068FED97E00E94BF068FEA97E06C
:1013D0000E94BF068BE697E00E94BF068CE297E072
:1013E0000E94BF068EEE96E00E94BF068AEB96E052
:1013F0000E94BF0686E996E00E94BF068BE796E052
:101400000E9459062FB7F89460914B0370914C03DA
:1014100080914D0390914E032FBF009125031091B1
:1014200026032091270330912803601B710B820B48
:10143000930BA50194010E94DD0DCA01B9014AE098
:101440000E94CB0689E796E090CF69E371E089E2DC
:1014500093E00E94050E892B69F48AEB99E00E94C3
:10146000BF0668EE73E080E090E00E943A050C94BD
:1014700000008ACF60E471E089E293E00E94050EEB
:10148000892B39F581EB99E00E9459062FB7F89422
:1014900060914B0370914C0380914D0390914E03EA
:1014A0002FBF00912503109126032091270330912F
:1014B0002803601B710B820B930BA50194010E9402
:1014C000DD0DCA01B9014AE00E94CB0688EA99E025
:1014D0004CCF67E471E089E293E00E94050E892B0E
:1014E00009F040C08091F0039091F103009711F44E
:1014F00084EF93E00B811C81081B190B8DE599E0AB
:101500000E94BF0682E599E00E945906C8010E9428
:101510004A078BE499E00E94BF0683E499E00E94A9
:1015200059060E94A1060E944A0781E499E00E94A0
:10153000590688E090E00E944A070E94BB068AE3B1
:1015400099E00E9459060E9494060E944A0788E387
:1015500099E00E94590684E090E00E944A070E94A8
:10156000BB0612CF6FE471E089E293E00E94050EA2
:10157000892BD1F41091240384E399E0112309F419
:10158000F4CE86E399E00E945906812F8150990B91
:101590009C01E9E0E29FC001E39F900D112480507F
:1015A0009D4F0E943E07F0CE63E571E089E293E033
:1015B0000E94050E892B09F053C08AE299E00E942F
:1015C000BF0680912403811114C000E013E0F801EC
:1015D0008085882339F0C8010E940F0788E299E0CE
:1015E0000E94BF06075F1F4F24E233E02017310738
:1015F00071F700E911E080E0F801F5A4FF2001F1A6
:1016000024A59091240329131BC0C8010E940F0731
:1016100085E299E00E945906D8011C96FD010190CF
:101620000020E9F73197EA1BFB0BBF0190E080E057
:101630004AE00E94CB0682E299E00E94BF068F2D0D
:10164000025D1F4FF3E000301F07B1F681119CCE01
:1016500080912403882309F497CE8AE199E085CE0E
:1016600046E050E066E571E089E293E00E94150EE5
:101670000097E1F520912403222319F087E099E0F7
:1016800074CE20912F03222369F0EFE2F3E0019062
:101690000020E9F79F0120533340E0E0F3E02830D9
:1016A000310518F08AEF98E060CE2085211116C030
:1016B000F9E0F89F8001F99F100D112400501D4F93
:1016C0006FE273E0C8010E940E0EF801C08680EF41
:1016D00098E00E9459068FE293E063CF0196399615
:1016E0008430910511F787EE98E03FCE43E050E05B
:1016F0006DE571E089E293E00E94150E8C01892B63
:10170000A9F561E671E08CE293E00E94050E892B59
:1017100019F41092240338CE63E671E08CE293E072
:101720000E94050E892BA9F38091240381111BC00F
:1017300040E0E42E43E0F42EF7018085882359F041
:101740006CE273E0C7010E94050E892B21F40F5F44
:101750000093240319CE0F5F1F4FF9E0EF0EF11C29
:101760000430110549F783ED98E0FFCD46E050E0E5
:1017700066E671E089E293E00E94150E0097D9F5C4
:1017800020912F03222369F0EFE2F3E00190002083
:10179000E9F79F0120533340E0E9F1E02C303105B7
:1017A00018F082EC98E0E1CD25A521111CC0D89E4F
:1017B0007001D99EF00C1124870100571E4F6FE273
:1017C00073E0C8010E940E0E6CE171E0C7018456FF
:1017D0009E4F0E940E0E80912403F80184A7C5A697
:1017E00088EB98E076CF0196BE9688309105E1F6B9
:1017F0008FEA98E0BACD43E050E06DE671E089E20F
:1018000093E00E94150E8C01892B79F570902403CA
:1018100030E9E32E31E0F32EF70185A58823D1F0DE
:101820006CE273E0C7010E94050E892B99F4F70161
:1018300084A587110FC0D09EF001D19EF00D112418
:10184000E057FE4F15A685EA98E00E9459068CE203
:1018500093E0A7CE0F5F1F4FFEE2EF0EF11C0830A2
:101860001105D1F686E998E080CD44E050E061E7CB
:1018700071E089E293E00E94150E892B21F57090AA
:10188000240300E911E0F80185A5882399F0980167
:101890002059314079016DE273E0C8010E94050EC4
:1018A000892B41F4F80184A5871104C0C70184562F
:1018B0009E4F77CE025D1F4FF3E000301F0719F7F0
:1018C00087E898E052CD45E050E066E771E089E2B4
:1018D00093E00E94150E3C01892B09F07AC06CE759
:1018E00071E08EE293E00E94320E009709F46EC020
:1018F000FC0110822C01F3E04F0E511C20912403B7
:101900002D8300E911E07801312C212CF70185A508
:10191000882329F19701205931403F832E83B2015A
:10192000C7010E94050E892BD1F4F70184A5FD8122
:101930008F1315C04FE150E06EE273E08E819F81FE
:1019400084569E4F0E94230ED29CF001D39CF00D32
:101950001124E057FE4F13A687E798E006CD2FEF3E
:10196000221A320A3EE2E30EF11C48E0241631044A
:1019700069F6F80185A581111DC0D69C7001D79C20
:10198000F00C1124870100571E4FB201C8010E94BC
:101990000E0E4FE150E06EE273E0C70184569E4F99
:1019A0000E94230EF80113A62D8124A7C5A68EE55B
:1019B00098E0DBCC3FEF631A730A025D1F4F48E0EB
:1019C00064167104B1F68CE498E0CFCC8EE293E01B
:1019D000E8CD60E871E089E293E00E94050E8C0199
:1019E000892B09F06CC084E498E00E9459060E949B
:1019F000A1060E944A0782E498E00E94590688E006
:101A000090E00E944A078FE398E00E9459060E94E6
:101A1000A10624E6FC012E9FC0012F9F900D1124EA
:101A200097FD079623E0959587952A95E1F70E9403
:101A30004A078CE398E00E94BF0685E398E00E9485
:101A400059060E9494060E944A0783E398E00E9488
:101A5000590684E090E00E944A0780E398E00E94E3
:101A600059060E94940629E1FC012E9FC0012F9F78
:101A7000900D11240E944A078DE298E00E94BF0653
:101A8000E0E9F1E085A5882359F0CF010C96DC014F
:101A90000D900020E9F71197A81BB90B0A0F1B1F27
:101AA000BE9633E0E030F30769F786E298E00E94E3
:101AB0005906C8010E944A078FE198E056CC63E8B6
:101AC00071E089E293E00E94050E892B19F480E011
:101AD00091E067CD6AE871E089E293E00E94050E2B
:101AE000892BD9F48AE999E00E9459062FB7F89416
:101AF00060914B0370914C0380914D0390914E0384
:101B00002FBFA50194010E94DD0DCA01B9014AE071
:101B10000E94CB068AE899E028CC8AE699E025CC99
:101B2000883011F08F3759F4EE2309F431CCE150AD
:101B3000E09349038FEC99E00E94590629CCEF31DC
:101B400008F026CC91E09E0F90934903F0E0E75D0A
:101B5000FC4F8083682F83E593E00E940C0618CC2D
:101B6000E3E5F3E01382128288EE93E0A0E0B0E0B8
:101B700084839583A683B7838CE091E091838083EF
:101B800085EC90E09587848784EC90E09787868742
:101B900080EC90E0918B808B81EC90E0938B828B3A
:101BA00082EC90E0958B848B86EC90E0978B868B13
:101BB000118E128E138E148E0895A1E21A2EAA1B76
:101BC000BB1BFD010DC0AA1FBB1FEE1FFF1FA217ED
:101BD000B307E407F50720F0A21BB30BE40BF50BEA
:101BE000661F771F881F991F1A9469F76095709573
:101BF000809590959B01AC01BD01CF010895EE0F3A
:101C0000FF1F0590F491E02D0994FB01DC018D91FB
:101C1000019080190110D9F3990B0895FB01DC01A3
:101C200001900D920020E1F70895FB01DC01415085
:101C3000504030F08D910190801919F40020B9F7CF
:101C4000881B990B0895FB01DC014150504048F07E
:101C500001900D920020C9F701C01D9241505040E3
:101C6000E0F70895FB0151915523A9F0BF01DC0174
:101C70004D9145174111E1F759F4CD010190002034
:101C800049F04D9140154111C9F3FB014111EFCFCE
:101C900081E090E001970895F894FFCF726F6F7420
:101CA00000000000000000000C066C059905740699
:101CB000CA05A805BC050D0A0062696E00746D7046
:101CC0000068656C7000636C656172006E656F66BC
:101CD00065746368007265626F6F74007570746913
:101CE0006D65006D656D696E666F00707764006C80
:101CF00073006D6B6469722000636420002F002EF6
:101D00002E00746F7563682000726D20006361742B
:101D100020006563686F2000203E20006466007725
:0C1D2000686F616D69006461746500000B
:107E0000112484B714BE81FFF0D085E080938100F7
:107E100082E08093C00088E18093C10086E0809377
:107E2000C20080E18093C4008EE0C9D0259A86E02C
:107E300020E33CEF91E0309385002093840096BBD3
:107E4000B09BFECF1D9AA8958150A9F7CC24DD24C4
:107E500088248394B5E0AB2EA1E19A2EF3E0BF2EE7
:107E6000A2D0813461F49FD0082FAFD0023811F036
:107E7000013811F484E001C083E08DD089C08234E0
:107E800011F484E103C0853419F485E0A6D080C0E4
:107E9000853579F488D0E82EFF2485D0082F10E0AE
:107EA000102F00270E291F29000F111F8ED06801E7
:107EB0006FC0863521F484E090D080E0DECF843638
:107EC00009F040C070D06FD0082F6DD080E0C81688
:107ED00080E7D80618F4F601B7BEE895C0E0D1E017
:107EE00062D089930C17E1F7F0E0CF16F0E7DF06D8
:107EF00018F0F601B7BEE89568D007B600FCFDCFD4
:107F0000A601A0E0B1E02C9130E011968C91119780
:107F100090E0982F8827822B932B1296FA010C0160
:107F200087BEE89511244E5F5F4FF1E0A038BF0790
:107F300051F7F601A7BEE89507B600FCFDCF97BE46
:107F4000E89526C08437B1F42ED02DD0F82E2BD052
:107F50003CD0F601EF2C8F010F5F1F4F84911BD097
:107F6000EA94F801C1F70894C11CD11CFA94CF0C13
:107F7000D11C0EC0853739F428D08EE10CD085E9AC
:107F80000AD08FE07ACF813511F488E018D01DD067
:107F900080E101D065CF982F8091C00085FFFCCF94
:107FA0009093C60008958091C00087FFFCCF809118
:107FB000C00084FD01C0A8958091C6000895E0E648
:107FC000F0E098E1908380830895EDDF803219F02E
:107FD00088E0F5DFFFCF84E1DECF1F93182FE3DFCA
:107FE0001150E9F7F2DF1F91089580E0E8DFEE27F6
:047FF000FF270994CA
:027FFE00040479
:00000001FF
